:100000000C942A000C9447000C9447000C94470071
:100010000C9447000C9447000C9447000C94470044
:100020000C9447000C9447000C9447000C94470034
:100030000C9447000C9447000C9447000C94470024
:100040000C9447000C9447000C9447000C94470014
:100050000C94470011241FBECFE5D8E0DEBFCDBF12
:1000600010E0A0E6B0E0EAE4F5E102C005900D92F0
:10007000AA3CB107D9F710E0AAECB0E001C01D928C
:10008000A93DB107E1F70E94F5050C94A30A0C9471
:10009000000084EA86BF06B607FEFDCF089584E916
:1000A00086BF089583B984E886BF06B607FEFDCFF4
:1000B00008951F93182F0E9449008EE40E94520059
:1000C000812F0E94520084E986BF1F9108958FEF0F
:1000D00080B908951F93DF93CF930F92CDB7DEB70A
:1000E000182F69830E94490089810E945200812F44
:1000F0000E94520084E986BF0F90CF91DF911F913B
:10010000089586B7846C86BF06B607FEFDCF83B11F
:10011000089586B7846886BF06B607FEFDCF83B113
:1001200008951F93182F8091CA0084608093CA009D
:100130000E94590085E88A95F1F700001295107F1A
:100140008091CA00812B0E9459008091CA008B7F48
:100150008093CA000E94590085E88A95F1F7000053
:100160001F9108950F931F93182F082F02950F705A
:100170008091CA00662311F48E7F01C08160809354
:10018000CA000E945900802F0E949100812F0E9476
:1001900091001F910F9108951F93182F8091CA000D
:1001A00081608093CA000E945900812F82958F70D0
:1001B0000E949100812F0E9491001F9108958FE26B
:1001C00095E70197F1F700C0000083E00E949100DD
:1001D0008FE39FE10197F1F700C0000083E00E94E8
:1001E000910087EC90E00197F1F700C0000083E0F8
:1001F0000E9491008FEC97E00197F1F700C000009A
:1002000082E00E9491008FEC97E00197F1F700C027
:10021000000088E260E00E94B2008FEC97E0019756
:10022000F1F700C000008CE060E00E94B2008FECAB
:1002300097E00197F1F700C0000086E060E00E94BF
:10024000B2008FEC97E00197F1F700C000008091B9
:10025000CA0088608093CA000E9459008091CA0039
:100260008D7F8093CA000E945900089581E060E06C
:100270000E94B20087EB9BE00197F1F700C00000FD
:1002800008956295660F660F607C680F862F806800
:1002900060E00E94B20008951F93CF93DF93EC01BA
:1002A00010E003C00E94CC001F5FFE01E10FF11DB2
:1002B00080818823B9F7DF91CF911F91089597B37B
:1002C000906B97BB80658DB908958FB9779BFECFF2
:1002D00008951FB8779BFECF8FB10895DF93CF931A
:1002E0000F92CDB7DEB7C498880F8E7769830E94CE
:1002F00065016981862F0E946501C49A0F90CF9194
:10030000DF910895C498880F8E7780680E946501F8
:100310000E946901C49A089581E06FE00E946E0115
:1003200008951F93DF93CF930F92CDB7DEB7182FA9
:1003300069830E9482016981682B812F0E946E016E
:100340000F90CF91DF911F9108951F93DF93CF936B
:100350000F92CDB7DEB7182F69830E9482016981A1
:1003600060956823812F0E946E010F90CF91DF91DD
:100370001F910895CF92DF92EF92FF920F931F93F8
:10038000DF93CF930F92CDB7DEB7F82EE62E8A011A
:1003900085E064E099830E94A5018AE060E80E94FC
:1003A000910199816F2D792F6B0106C0F601619142
:1003B0006F0189E00E946E018C2D8F198E15B0F3AC
:1003C00081E063E00E946E01FF24FA9485E00E94C0
:1003D0008201FA9411F082FFF9CF82E20E94820139
:1003E000F801808381E20E948201F80181830F90ED
:1003F000CF91DF911F910F91FF90EF90DF90CF9001
:1004000008954F925F927F928F929F92AF92BF9288
:10041000CF92DF92EF92FF920F931F93DF93CF93D0
:1004200000D0CDB7DEB7F82EA62E722E832E68012F
:100430008C50833050F490E0FC01ED53FF4FE0808E
:100440008A539F4FFC01908002C09924EE246E2DA8
:10045000606882E049837A830E946E0184E060E8EC
:100460000E94A5018AE060E80E94910181E060E0BD
:100470000E946E017A810A2D172F44245524498148
:10048000A42EBB2409C0F80161918F0189E00E946C
:100490006E010894411C511C4A145B04A0F381E0D6
:1004A0006F2D0E946E01FF2DFC3021F48DE060E87D
:1004B0000E94910160EDA62E67E0B62E84E00E94B6
:1004C0008201082F0894A108B108A114B10421F0F9
:1004D00080FD02C0892191F38DE060E80E94A501B2
:1004E000A114B10409F448C086E00E9482018B7116
:1004F00009F042C0E02281E0E822EF2DEC30F1F576
:100500008AE00E948201982F8CE099830E948201E8
:1005100087709981292F30E0882351F02150304095
:1005200053E0220F331F5A95E1F7280F311D05C004
:1005300043E0220F331F4A95E1F7F6013183208310
:10054000992319F0913118F403C091E001C090E1B2
:10055000072D182DAA24BB24C92EDD2409C089E04B
:100560000E948201F80181938F010894A11CB11CA3
:10057000AC14BD04A0F302C082E0E82E8E2D0F90D3
:100580000F90CF91DF911F910F91FF90EF90DF902F
:10059000CF90BF90AF909F908F907F905F904F9043
:1005A00008950F931F93DF93CF9300D000D000D016
:1005B000CDB7DEB780E58B831C828E010D5F1F4FA8
:1005C000C80162E0AE014B5F5F4F0E94BA018CE050
:1005D000B80144E098018E010F5F1F4F0E94010295
:1005E00026960FB6F894DEBF0FBECDBFCF91DF9138
:1005F0001F910F910895CF92DF92EF92FF920F9388
:100600001F93DF93CF93CDB7DEB764970FB6F894FF
:10061000DEBF0FBECDBFD62EC72E90EA9B838C8344
:1006200073E0E72EF12CEC0EFD1EC70162E0AE0177
:100630004B5F5F4F0E94BA018CE0B70144E0970125
:100640008E010F5F1F4F0E940102882399F5898157
:100650009A818430910571F58B818F708A3051F5C4
:100660009601832F922FDC01F701CE0143962D9145
:100670002193E817F907D9F78E010D5F1F4FC801C5
:1006800060E1AE014D5E5F4F0E94BA018CE0B8019F
:1006900042E198018E010F5F1F4F0E9401028823E3
:1006A00049F429813A812430310521F49B819F70DE
:1006B0009A3009F082E064960FB6F894DEBF0FBE60
:1006C000CDBFCF91DF911F910F91FF90EF90DF9001
:1006D000CF9008950F931F93DF93CF9300D0CDB7A2
:1006E000DEB78B0190E3FB0190838183AB014E5F0A
:1006F0005F4FCB0162E00E94BA018CE0B80144E098
:1007000098018E010F5F1F4F0E940102882329F478
:1007100029813A812039310509F082E00F900F904C
:10072000CF91DF911F910F9108950F931F93DF9346
:10073000CF93CDB7DEB72E970FB6F894DEBF0FBEBE
:10074000CDBFF9018B836C83842F952FBE016B5F26
:100750007F4F9E01255F3F4FDC014D91CD01DB01B5
:100760004D93BD01A217B307B9F780818B878181B3
:100770008C8782818D8783818E879E012D5F3F4F7D
:100780008EE0B9014CE08E010F5F1F4F0E94010205
:10079000182F882321F488E00E94820183FF12E051
:1007A000812F2E960FB6F894DEBF0FBECDBFCF912E
:1007B000DF911F910F9108950F931F93DF93CF93B4
:1007C000CDB7DEB72B970FB6F894DEBF0FBECDBF07
:1007D00023E92B8320E72C83282F392FD901FE0111
:1007E0003596CE010A962D912193E817F907D9F78E
:1007F0008E010D5F1F4FC80167E0AE01465F5F4F7E
:100800000E94BA018CE0B80149E098018E010F5FA7
:100810001F4F0E940102882339F489819A8188310F
:10082000910511F48B8101C080E02B960FB6F894EE
:10083000DEBF0FBECDBFCF91DF911F910F91089505
:10084000EF92FF920F931F93DF93CF9300D0CDB71A
:10085000DEB77C018DE060E00E946E0183E9F70164
:10086000808380E281838CE0B70142E097018E01B2
:100870000F5F1F4F0E940102882361F4F70190E08F
:1008800020E0319193272F5F2430D9F7F70124819D
:10089000921382E00F900F90CF91DF911F910F91F3
:1008A000FF90EF900895FF920F931F93DF93CF93E4
:1008B00000D0CDB7DEB7F82E8B018DE067E00E9447
:1008C0006E01F801F0828CE0B80141E098018E01E0
:1008D0000F5F1F4F0E940102882329F429813A816A
:1008E0002031310509F082E00F900F90CF91DF9118
:1008F0001F910F91FF90089584E10E94820190E082
:1009000083709070009721F484E163E00E9491016C
:10091000089581E00E945F01BC9AC498D19AD99849
:100920008FEC97E00197F1F700C00000D99A0E9480
:100930008C018AE26DE80E946E018BE26EE30E94F8
:100940006E018DE26EE10E946E018CE260E00E9419
:100950006E0185E160E40E946E0181E16DE30E9419
:100960006E010E947C04089584E163E00E94A50169
:10097000089510BC87E689B988E18AB986E880BD08
:1009800008955D9BFECF8CB90895EF92FF92CF93AF
:10099000DF93E82EE7017E01F92EE70102C00E94F5
:1009A000C10489918823D9F7DF91CF91FF90EF900F
:1009B00008955F9BFECF8CB10895CF92DF92EF92A6
:1009C000FF920F931F93CF93DF936C018B017C01F8
:1009D000C0E0D0E00150104008C00E94D904F701E7
:1009E00081937F018A3021F02196C017D107A8F3A7
:1009F000CC0DDD1D1882DF91CF911F910F91FF90DB
:100A0000EF90DF90CF9008951F93182F8091D7001B
:100A1000803180F01092D7008091D8008F5F809352
:100A2000D800823010F01092D80080E06091D80099
:100A30000E944101812F0E94CC008091D7008F5FDE
:100A40008093D7001F9108951F93CF93DF93EC01FC
:100A500010E003C00E9404051F5FFE01E10FF11DBD
:100A600080818823B9F7DF91CF911F910895AF92CC
:100A7000BF92CF92DF92EF92FF920F931F93DF937B
:100A8000CF9300D0CDB7DEB7FC01CB01B42EA52E9D
:100A9000A80165E6608360E070E029833A830E94E4
:100AA00084078B2D9A2D60E070E0A7010E948407D7
:100AB0002981822F3A81932F60E070E0A6010E9485
:100AC00084070F900F90CF91DF911F910F91FF90AE
:100AD000EF90DF90CF90BF90AF9008958F929F924C
:100AE000AF92BF92CF92DF92EF92FF920F931F933C
:100AF000DF93CF930F92CDB7DEB76B017A01590127
:100B000048016BE770E00E948B07009709F44DC025
:100B1000B6010E94A507009709F44AC06AE370E095
:100B20000E948B07009709F446C0FC0131968F01A3
:100B300081918032E1F38114910411F4480112C0D3
:100B40008232E1F70F5F1F4FC80162E270E00E943E
:100B50008B07009799F16C01C01AD10ACA14DB0403
:100B600080F517C06401F40121914F01222361F047
:100B7000822F90E029830E947C072981009721F42D
:100B80002C3211F02D3771F7C01AD10ACA14DB04C8
:100B9000D8F4C701B801A6010E949607F601EE0D30
:100BA000FF1D108220E030E011C02FEF3FEF0EC09C
:100BB0002EEF3FEF0BC02DEF3FEF08C02CEF3FEFC4
:100BC00005C02BEF3FEF02C02AEF3FEFC9010F90A6
:100BD000CF91DF911F910F91FF90EF90DF90CF9019
:100BE000BF90AF909F908F9008952F923F924F9219
:100BF0005F926F927F928F929F92AF92BF92CF92AD
:100C0000DF92EF92FF920F931F93DF93CF93CDB7B5
:100C1000DEB7C65FD0400FB6F894DEBF0FBECDBFC3
:100C200078948AB38A7F8ABB8BB385608BBB8FEF46
:100C300080B90E94B9040E94DF000E9436010E9420
:100C4000890485E6898380E690E00E944C018FEF5D
:100C500091E1AAE781509040A040E1F700C0000078
:100C60000E94360180E060E00E94410187E0682E2A
:100C7000712C6C0E7D1E0CE1802E912C8C0E9D1E15
:100C800017EB412E512C4C0E5D1EBCE02B2E312C4F
:100C90002C0E3D1EA6E3AA2EB12CAC0EBD1E86E284
:100CA000B3010E945304882309F01DC1C3010E94AF
:100CB0002004882309F017C1730100E010E0D70178
:100CC0002D917D0100D000D000D0EDB7FEB7319658
:100CD000C401800F911FADB7BEB712969C938E933F
:100CE000119781E790E093838283248315820E9489
:100CF000BF070E5F1F4FADB7BEB716960FB6F8947D
:100D0000BEBF0FBEADBF08301105C9F6BAE0BCA327
:100D10001DA2CA9B11C089E6898300D000D000D0F3
:100D2000EDB7FEB73196ADB7BEB71296BC92AE9294
:100D3000119786E790E023C0C89B11C08DE289839C
:100D400000D000D000D0EDB7FEB73196ADB7BEB73A
:100D50001296BC92AE9211978DE790E010C08BE294
:100D6000898300D000D000D0EDB7FEB73196ADB783
:100D7000BEB71296BC92AE92119787E890E093832B
:100D80008283958284820E94BF07ADB7BEB7169654
:100D90000FB6F894BEBF0FBEADBFC5010E94C5041B
:100DA000C20160E470E00E94DD04D101E3EBF0E0F9
:100DB00088E001900D928150E1F7DE015496EBEB53
:100DC000F0E088E001900D928150E1F7C201B1019D
:100DD000AE014A5D5F4F20E130E001E010E00E948B
:100DE0006E05C201BE016C5E7F4FAE01495B5F4F75
:100DF00020E230E000E010E00E946E0500D000D05C
:100E000000D0EDB7FEB7319687E690E08C0F9D1FBE
:100E1000ADB7BEB712969C938E931197A1E9B0E03F
:100E2000B383A28386E290E08C0F9D1F9583848319
:100E30000E94BF07EDB7FEB7319687E890E08C0FB0
:100E40009D1FADB7BEB712969C938E931197A8E9DC
:100E5000B0E0B383A28387E490E08C0F9D1F95835D
:100E600084830E94BF07ADB7BEB716960FB6F8943D
:100E7000BEBF0FBEADBF0E94360180E060E00E94A1
:100E80004101CE0189599F4F0E944C018FE060E0E3
:100E90000E94410189810E94CC0080E061E00E94B3
:100EA0004101CE0189579F4F0E944C018FEF9DE376
:100EB000A9E481509040A040E1F700C00000CE01BD
:100EC0000196BE016E5F7F4FA201930105E010E025
:100ED000F0E4EF2EF12CE5E0CE2ED12C0E94370568
:100EE0000E943601DCCE80E060E00E94410184EA8D
:100EF00090E00E944C01D3CE91114BC2803219F088
:100F000089508550D0F70895DC0101C06D934150A0
:100F10005040E0F70895FC018191861721F0882365
:100F2000D9F7992708953197CF010895FB01DC0186
:100F30004150504048F001900D920020C9F701C087
:100F40001D9241505040E0F70895FB015191552307
:100F5000A9F0BF01DC014D9145174111E1F759F4AA
:100F6000CD010190002049F04D9140154111C9F388
:100F7000FB014111EFCF81E090E001970895AEE0D1
:100F8000B0E0E5ECF7E00C947A0A0D891E8986E062
:100F90008C831A8309838FEF9FE79E838D839E0145
:100FA000275E3F4FCE0101966F89788DA9010E947F
:100FB000E207EF81F885E00FF11F10822E96E4E042
:100FC0000C94960AACE0B0E0E8EEF7E00C946C0A02
:100FD0006C011B018A01FC0117821682838181FF4B
:100FE000D1C12E010894411C511CF6019381F101DD
:100FF00093FD859193FF81911F01882309F4BEC160
:10100000853239F493FD859193FF81911F018532DB
:1010100029F490E0B6010E94E209E7CFEE24FF2414
:1010200020E02032B0F48B3269F08C3228F4803228
:1010300051F0833271F40BC08D3239F0803349F4B2
:1010400021602CC02260246029C0286027C0206154
:1010500025C027FD2CC0382F30533A3098F426FF96
:1010600008C08E2D880FE82EEE0CEE0CE80EE30E75
:1010700015C08F2D880FF82EFF0CFF0CF80EF30E05
:1010800020620CC08E3221F426FD78C1206406C097
:101090008C3611F4206802C0883649F4F10193FDC2
:1010A000859193FF81911F01882309F0BACF982F72
:1010B0009554933018F09052933028F40C5F1F4FE2
:1010C000FFE3F9830DC0833631F0833771F0833548
:1010D00009F060C022C0F801808189830E5F1F4F34
:1010E000420171E0A72EB12C16C062E0662E712C71
:1010F000600E711EF8018080918026FF03C06E2D66
:1011000070E002C06FEF7FEFC4012C870E94D70907
:101110005C0183012C852F7717C052E0652E712C5E
:10112000600E711EF8018080918026FF03C06E2D35
:1011300070E002C06FEF7FEFC4012C870E94CC09E2
:101140005C012C852068830123FD20C008C080E25B
:1011500090E0B6012C870E94E209FA942C858F2D2D
:1011600090E0A816B90698F311C0F40127FD859107
:1011700027FF81914F0190E0B6012C870E94E20980
:101180002C85F110FA940894A108B108A114B104B7
:1011900061F7F1C0843611F0893649F527FF08C0A0
:1011A000F80160817181828193810C5F1F4F09C0BA
:1011B000F80160817181882777FD8095982F0E5FF7
:1011C0001F4F4FE6B42EB22297FF09C0909580952D
:1011D000709561957F4F8F4F9F4FF0E8BF2AA20116
:1011E0002AE030E00E940E0A782E741845C0853738
:1011F00031F43FEEB32EB2222AE030E025C099EF61
:10120000B92EB2228F36C1F0803720F4883509F02C
:10121000B5C00DC0803721F0883709F0AFC002C0DB
:1012200020E1B22AB4FE0BC084E0B82A08C0B4FEA4
:1012300009C0E6E0BE2A06C028E030E005C020E193
:1012400030E002C020E132E0B7FE08C0F801608162
:101250007181828193810C5F1F4F07C0F80160810B
:10126000718180E090E00E5F1F4FA2010E940E0A84
:10127000782E7418FFE7BF22B6FE0BC02EEFB22205
:101280007E1438F4B4FE07C0B2FC05C08FEEB8225D
:1012900002C0A72C01C0AE2C8B2D90E0B4FE0DC077
:1012A000FE01E70DF11D2081203319F4E9EEBE2285
:1012B00009C0A394B2FE06C004C08678907000975F
:1012C00009F0A3948B2C9924B3FC14C0B0FE0FC07A
:1012D000AF1428F4E72CEF0CEA18AF2C08C0E72C69
:1012E00006C080E290E0B6010E94E209A394AF1428
:1012F000C0F304C0AF1410F4FA1801C0FF2484FE38
:101300000FC080E390E0B6010E94E20982FE1FC098
:1013100081FE03C088E590E010C088E790E00DC032
:10132000C40186789070009791F081FC02C080E241
:1013300001C08BE2B7FC8DE290E0B6010E94E209A9
:1013400006C080E390E0B6010E94E209EA947E14B0
:10135000C0F37A94F201E70DF11D808190E0B601AF
:101360000E94E2097720A9F706C080E290E0B6016A
:101370000E94E209FA94FF20C1F737CEF6012681D8
:10138000378102C02FEF3FEFC9012C96E2E10C94A8
:10139000880A992788270895FC01059061507040BC
:1013A0000110D8F7809590958E0F9F1F0895FC012E
:1013B0006150704001900110D8F7809590958E0F84
:1013C0009F1F08950F931F93CF93DF938C01EB0121
:1013D0008B8181FF1BC082FF0DC02E813F818C81DC
:1013E0009D812817390764F4E881F9810193F98315
:1013F000E88306C0E885F985802F0995009731F4C8
:101400008E819F8101969F838E8302C00FEF1FEF15
:10141000C801DF91CF911F910F910895FA01AA277A
:10142000283051F1203181F1E8946F936E7F6E5F27
:101430007F4F8F4F9F4FAF4FB1E03ED0B4E03CD0D5
:10144000670F781F891F9A1FA11D680F791F8A1FB8
:10145000911DA11D6A0F711D811D911DA11D20D01F
:1014600009F468943F912AE0269F11243019305DD9
:101470003193DEF6CF010895462F4770405D4193CA
:10148000B3E00FD0C9F7F6CF462F4F70405D4A3317
:1014900018F0495D31FD4052419302D0A9F7EACFDF
:1014A000B4E0A6959795879577956795BA95C9F70E
:1014B00000976105710508959B01AC010A2E069401
:1014C0005795479537952795BA95C9F7620F731FBA
:1014D000841F951FA01D08952F923F924F925F92F7
:1014E0006F927F928F929F92AF92BF92CF92DF9234
:1014F000EF92FF920F931F93CF93DF93CDB7DEB799
:10150000CA1BDB0B0FB6F894DEBF0FBECDBF09942C
:101510002A88398848885F846E847D848C849B8483
:10152000AA84B984C884DF80EE80FD800C811B8191
:10153000AA81B981CE0FD11D0FB6F894DEBF0FBEC0
:0A154000CDBFED010895F894FFCF30
:10154A00496E697469616C697A6174696F6E2E2E6D
:10155A0000253032580047455423257300504F5315
:10156A0054233023257300504F53542331232573BA
:10157A000049443A2025730042616C616E63653A02
:10158A0020257300526561647920666F7220636159
:10159A00726400636172645F69640062616C616EA7
:0A15AA0063650077001230001000A6
:00000001FF
